:020000040000FA
:100000000C9462000C948A000C948A000C948A0070
:100010000C948A000C948A000C948A000C948A0038
:100020000C948A000C948A000C948A000C948A0028
:100030000C948A000C948A000C948A000C948A0018
:100040000C9460030C948A000C948A000C948A002F
:100050000C948A000C948A000C948A000C948A00F8
:100060000C948A000C948A000000000024002700F1
:100070002A0000000000250028002B0000000008D6
:10008000000201000003040700000000000000005F
:1000900000000000230026002900040404040404D6
:1000A0000404020202020202030303030303010227
:1000B00004081020408001020408102001020408F6
:1000C0001020ED0411241FBECFEFD8E0DEBFCDBF5E
:1000D00011E0A0E0B1E0ECECFCE002C005900D9274
:1000E000A233B107D9F721E0A2E3B1E001C01D922C
:1000F000A735B207E1F710E0C2E6D0E004C02197CF
:10010000FE010E945E06C136D107C9F70E94EF03C7
:100110000C9464060C940000AF92BF92CF92DF92D1
:10012000EF92FF920F931F93CF93DF936C017B01AC
:100130008B01040F151FEB015E01AE18BF08C0173D
:10014000D10759F06991D601ED91FC910190F081B0
:10015000E02DC6010995892B79F7C501DF91CF9173
:100160001F910F91FF90EF90DF90CF90BF90AF90D5
:10017000089590E0FC01E458FF4F2491FC01E25502
:10018000FF4F3491FC01E656FF4FE491EE23C9F096
:10019000222339F0233001F1A8F4213019F1223063
:1001A00029F1F0E0EE0FFF1FEE58FF4FA591B4913B
:1001B0008FB7F894EC91611126C030953E233C93A3
:1001C0008FBF08952730A9F02830C9F0243049F7AF
:1001D000809180008F7D03C0809180008F77809315
:1001E0008000DFCF84B58F7784BDDBCF84B58F7D72
:1001F000FBCF8091B0008F778093B000D2CF8091F9
:10020000B0008F7DF9CF3E2BDACFCF93DF9390E014
:10021000FC01E255FF4F249186569F4FFC018491CB
:100220008823D1F090E0880F991FFC01E859FF4F17
:10023000A591B491FC01EE58FF4FC591D491611185
:100240000EC09FB7F8948C91E22FE0958E238C938B
:100250002881E223E8839FBFDF91CF9108958FB774
:10026000F894EC91E22BEC938FBFF6CF3FB7F89464
:100270008091370190913801A0913901B0913A01F4
:1002800026B5A89B05C02F3F19F00196A11DB11DF1
:100290003FBFBA2FA92F982F8827BC01CD01620F2D
:1002A000711D811D911D42E0660F771F881F991FE8
:1002B0004A95D1F708958F929F92AF92BF92CF92B5
:1002C000DF92EF92FF920E9436014B015C0184E6BF
:1002D000C82ED12CE12CF12C0E9436016819790925
:1002E0008A099B09683E734081059105A8F321E0C6
:1002F000C21AD108E108F10888EE880E83E0981E42
:10030000A11CB11CC114D104E104F10429F7FF9030
:10031000EF90DF90CF90BF90AF909F908F90089517
:10032000089590E080E008958F929F92AF92BF92DF
:100330000F931F93CF93DF93CDB7DEB7A1970FB67F
:10034000F894DEBF0FBECDBF19A2423008F44AE0D8
:100350008E010F5D1F4F842E912CB12CA12CA50175
:1003600094010E943C06E62FB901CA01EA3044F527
:10037000E05DD801EE938D01232B242B252B79F7FB
:1003800090E080E0109769F0FD0101900020E9F70E
:100390003197AF014A1B5B0BBD018FE391E00E94D7
:1003A0008C00A1960FB6F894DEBF0FBECDBFDF91D3
:1003B000CF911F910F91BF90AF909F908F90089514
:1003C000E95CD7CFFC0101900020E9F73197AF013C
:1003D000481B590BBC018FE391E00C948C00CF9328
:1003E000DF93EC0160E08E810E94B90061E08E81B4
:1003F0000E94B90060E08E810E94B9008BE891E014
:100400000197F1F7DF91CF910895CF92DF92EF92AC
:10041000FF920F931F93CF93DF936C017C0187E0D2
:10042000E80EF11CD0E0C0E0062F10E0B8010C2E61
:1004300002C0759567950A94E2F76170F7018191A2
:100440007F010E94B9002196C430D10579F7C60119
:10045000DF91CF911F910F91FF90EF90DF90CF90A0
:100460000C94EF01CF92DF92EF92FF920F931F93C4
:10047000CF93DF93EC01F62E642F8C810E94B9009C
:100480008D818F3F19F060E00E94B9000F2D10E0C0
:100490008F8584FF25C06E0187E0C80ED11CF12C2A
:1004A000E12CB8010E2C02C0759567950A94E2F70D
:1004B0006170F60181916F010E94B900FFEFEF1AA0
:1004C000FF0A88E0E816F10461F7CE01DF91CF91D1
:1004D0001F910F91FF90EF90DF90CF900C94EF0160
:1004E000B80184E0759567958A95E1F7CE010E9481
:1004F00005026F2DCE01DF91CF911F910F91FF90DB
:10050000EF90DF90CF900C94050240E0682F8FE3CE
:1005100091E00C943202CF93DF93823029F49091D2
:100520004E01986090934E018093520110925301B6
:1005300080E48093540180E18093550180E58093AD
:10054000560161E0809143010E94050180914401C0
:100550008F3F19F061E00E94050161E08091450143
:100560000E940501CFE3D1E09E012F5331408091DD
:100570004E0184FD0BC084E090E0219628173907D6
:1005800044F461E08E810E940501EECF88E090E0A6
:10059000F4CF8BE39DE00197F1F760E08091430198
:1005A0000E94B90060E0809145010E94B9008091ED
:1005B00044018F3F19F060E00E94B90080914E0124
:1005C00084FD39C063E08FE391E00E940502CBE433
:1005D000D6E4CE010197F1F763E08FE391E00E944A
:1005E00005022197F1F763E08FE391E00E94050295
:1005F00083E592E00197F1F762E08FE391E00E94DA
:10060000050280914E0180620E94850284E0809301
:100610004F018CE00E94850281E00E9485028BE3FD
:100620009FE10197F1F782E08093500186E0DF912E
:10063000CF910C94850280620E9485028BE496E43F
:100640000197F1F780914E0180620E94850283E557
:1006500092E00197F1F780914E0180620E9485023D
:10066000D0CF41E00E94320281E090E00895CF9225
:10067000DF92EF92FF926C01990FEE08FF08F7FEF0
:1006800016C041E06DE28FE391E00E9432026627DE
:100690007727CB016C197D098E099F094AE00E94DA
:1006A00094010196FF90EF90DF90CF9008954AE07B
:1006B000C701B601FF90EF90DF90CF900C949401AA
:1006C0001F920F920FB60F9211242F933F938F9387
:1006D0009F93AF93BF938091330190913401A09188
:1006E0003501B09136013091320123E0230F2D37CF
:1006F00058F50196A11DB11D20933201809333015D
:1007000090933401A0933501B09336018091370165
:1007100090913801A0913901B0913A010196A11D43
:10072000B11D8093370190933801A0933901B093A4
:100730003A01BF91AF919F918F913F912F910F906F
:100740000FBE0F901F90189526E8230F0296A11D4B
:10075000B11DD2CFCF92DF92EF92FF920F931F93F2
:10076000E82FF92F05C0015011092109310961F164
:10077000908196239417B9F305C0015011092109FE
:10078000310911F1908196239413F7CFC12CD12C0C
:10079000E12CF12C0AC08FEFC81AD80AE80AF80A2F
:1007A0000C151D052E053F0579F0808186238417E1
:1007B00091F36C2D7D2D8E2D9F2D1F910F91FF900C
:1007C000EF90DF90CF90089560E070E080E090E0DF
:1007D0001F910F91FF90EF90DF90CF900895789444
:1007E00084B5826084BD84B5816084BD85B5826036
:1007F00085BD85B5816085BD80916E0081608093E7
:100800006E0010928100809181008260809381004F
:10081000809181008160809381008091800081605F
:10082000809380008091B10084608093B1008091BA
:10083000B00081608093B00080917A0084608093E2
:100840007A0080917A00826080937A0080917A00A9
:10085000816080937A0080917A00806880937A002A
:100860001092C10082E00E948B0261E080E00E9451
:10087000050160E081E00E9405018CE091E00E94AA
:10088000E201C3E0D0E09BE2E92EF12C2FEAC22E78
:1008900020E0D22E3BE9A32E30E0B32E40E0842EA0
:1008A00040E0942E60E080E00E94B900CE01019704
:1008B000F1F761E080E00E94B900C7010197F1F70C
:1008C00060E080E00E94B900F6016491F501849136
:1008D000E82FF0E0EE0FFF1FE057FF4F8591949156
:1008E00000E412E42FE030E0462F0E94AA036115D5
:1008F00071058105910529F06F5F7F4F8F4F9F4FE5
:100900009F700E9443052B013C0126E933E44BE034
:100910005DE30E94A70520E030E040E05FE30E9435
:10092000A7050E940B0570933E0160933D012EE3E5
:1009300038EE49E55CE3C301B2010E94A70520E05F
:1009400030E040E05FE30E94A7050E940B05709332
:100950003C0160933B01E1E0809152018111E0E0B4
:10096000E195F0E0E15CFE4F848980680E94850299
:1009700083E191E00E94E20180913D0190913E016E
:100980000E9437038DE191E00E94E2010E945B0129
:10099000E0915201E230F8F4E150F0E0E15CFE4F0A
:1009A000848980680E94850281E291E00E94E201D0
:1009B00080913B0190913C010E9437038CE291E0D1
:1009C0000E94E2010E945B018114910409F46ACF44
:1009D0000E94000067CFE1E0E0CFEFE3F1E0138297
:1009E000128284E091E0918380838CE084838FEF96
:1009F00085838BE0868385E0878384E0808783E03E
:100A0000818782E08287138614861586168617866C
:100A100081E00C948B020E9412056894B1110C9431
:100A2000A10508950E94860588F09F5798F0B92F78
:100A30009927B751B0F0E1F0660F771F881F991F13
:100A40001AF0BA95C9F714C0B13091F00E94A00510
:100A5000B1E008950C94A005672F782F8827B85F20
:100A600039F0B93FCCF3869577956795B395D9F76B
:100A70003EF490958095709561957F4F8F4F9F4F75
:100A80000895E89409C097FB3EF490958095709581
:100A900061957F4F8F4F9F4F9923A9F0F92F96E9CA
:100AA000BB279395F695879577956795B795F1113F
:100AB000F8CFFAF4BB0F11F460FF1BC06F5F7F4FDC
:100AC0008F4F9F4F16C0882311F096E911C07723EE
:100AD00021F09EE8872F762F05C0662371F096E8F7
:100AE000862F70E060E02AF09A95660F771F881FC6
:100AF000DAF7880F9695879597F9089557FD9058DE
:100B0000440F551F59F05F3F71F04795880F97FBD1
:100B1000991F61F09F3F79F087950895121613068B
:100B20001406551FF2CF4695F1DF08C016161706BA
:100B30001806991FF1CF86957105610508940895EF
:100B4000E894BB2766277727CB0197F908950E9481
:100B5000BA050C942B060E941D0638F00E9424064C
:100B600020F0952311F00C9414060C941A0611240D
:100B70000C94A1050E947E0570F3959FC1F3950F1B
:100B800050E0551F629FF001729FBB27F00DB11D11
:100B9000639FAA27F00DB11DAA1F649F6627B00DA1
:100BA000A11D661F829F2227B00DA11D621F739F8A
:100BB000B00DA11D621F839FA00D611D221F749F98
:100BC0003327A00D611D231F849F600D211D822FDF
:100BD000762F6A2F11249F5750409AF0F1F0882306
:100BE0004AF0EE0FFF1FBB1F661F771F881F915033
:100BF0005040A9F79E3F510580F00C9414060C94C8
:100C0000A1055F3FE4F3983ED4F386957795679509
:100C1000B795F795E7959F5FC1F7FE2B880F911D5C
:100C20009695879597F9089597F99F6780E870E002
:100C300060E008959FEF80EC089500240A94161652
:100C4000170618060906089500240A9412161306BA
:100C5000140605060895092E0394000C11F4882348
:100C600052F0BB0F40F4BF2B11F460FF04C06F5F64
:100C70007F4F8F4F9F4F0895A1E21A2EAA1BBB1BD7
:100C8000FD010DC0AA1FBB1FEE1FFF1FA217B30758
:100C9000E407F50720F0A21BB30BE40BF50B661F6E
:100CA000771F881F991F1A9469F760957095809532
:100CB00090959B01AC01BD01CF010895EE0FFF1F80
:100CC0000590F491E02D0994F894FFCF0000000006
:100CD00031038C009101900153746172743A0044A5
:100CE000697374616E6365200020636D00446973ED
:0E0CF00074616E63653A200020696E636800CF
:107E0000112484B714BE81FFF0D085E080938100F7
:107E100082E08093C00088E18093C10086E0809377
:107E2000C20080E18093C4008EE0C9D0259A86E02C
:107E300020E33CEF91E0309385002093840096BBD3
:107E4000B09BFECF1D9AA8958150A9F7CC24DD24C4
:107E500088248394B5E0AB2EA1E19A2EF3E0BF2EE7
:107E6000A2D0813461F49FD0082FAFD0023811F036
:107E7000013811F484E001C083E08DD089C08234E0
:107E800011F484E103C0853419F485E0A6D080C0E4
:107E9000853579F488D0E82EFF2485D0082F10E0AE
:107EA000102F00270E291F29000F111F8ED06801E7
:107EB0006FC0863521F484E090D080E0DECF843638
:107EC00009F040C070D06FD0082F6DD080E0C81688
:107ED00080E7D80618F4F601B7BEE895C0E0D1E017
:107EE00062D089930C17E1F7F0E0CF16F0E7DF06D8
:107EF00018F0F601B7BEE89568D007B600FCFDCFD4
:107F0000A601A0E0B1E02C9130E011968C91119780
:107F100090E0982F8827822B932B1296FA010C0160
:107F200087BEE89511244E5F5F4FF1E0A038BF0790
:107F300051F7F601A7BEE89507B600FCFDCF97BE46
:107F4000E89526C08437B1F42ED02DD0F82E2BD052
:107F50003CD0F601EF2C8F010F5F1F4F84911BD097
:107F6000EA94F801C1F70894C11CD11CFA94CF0C13
:107F7000D11C0EC0853739F428D08EE10CD085E9AC
:107F80000AD08FE07ACF813511F488E018D01DD067
:107F900080E101D065CF982F8091C00085FFFCCF94
:107FA0009093C60008958091C00087FFFCCF809118
:107FB000C00084FD01C0A8958091C6000895E0E648
:107FC000F0E098E1908380830895EDDF803219F02E
:107FD00088E0F5DFFFCF84E1DECF1F93182FE3DFCA
:107FE0001150E9F7F2DF1F91089580E0E8DFEE27F6
:047FF000FF270994CA
:027FFE00040479
:00000001FF
